:040000006F10707E8F
:1000040000000000000000005C1300005E1300000C
:1000140000000000E41F00000000000000000000D9
:10002400E41F0000E41F00000000000000000000C6
:10003400E41F000000000000E41F000000000000B6
:10004400E41F0000E41F0000E41F000000000000A3
:10005400741C0000E41F0000E41F0000E41F000003
:10006400E41F0000E41F0000E41F0000E41F000080
:10007400E41F0000E41F0000E41F0000E41F000070
:10008400E41F0000861B0000E41F0000B2190000FA
:10009400E41F0000E41F0000E41F0000E41F000050
:1000A400E41F0000E41F0000E41F0000E41F000040
:1000B400E41F0000E41F0000E41F0000E41F000030
:1000C400E41F0000C80A0000E41F0000E41F000051
:1000D400E41F0000E41F0000E41F00000000000013
:1000E400000000000000000000000000000000000C
:0C00F40000000000000000000000000000
:10010000397101436EC619A0397141536AC866CA74
:1001100062CC5ECE19A0397101535AD056D252D456
:100120004ED64AD826DA22DC06DE330161408282CE
:1001300041114AC026C222C406C68282B24D410184
:10014000024D924C224CB24B4101024B924A224A40
:10015000B2494101024992442244B24041018280A5
:100160003D432A876373C3029377F700BDEFADE584
:10017000937606FF3D8ABA960CC34CC30CC74CC796
:100180004107E36BD7FE11E28280B306C3408A06C3
:100190009702000096966780A6002307B700A30683
:1001A000B7002306B700A305B7002305B700A304D3
:1001B000B7002304B700A303B7002303B700A302CB
:1001C000B7002302B700A301B7002301B700A300C3
:1001D000B7002300B700828093F5F50F9396850052
:1001E000D58D93960501D58D61B79396270097021B
:1001F000000096968682E78086FA9680C1171D8F4A
:100200003E96E374C3F8A5B7EFF29FF2411185451E
:100210002A84414502C202C402C6EF20C02A370523
:100220003008854513050540EF204010B70704004E
:100230003EC2914411C0C14405444C0037150140F1
:1002400026C622C4EF10D075B70708004C0037153A
:1002500001403EC226C622C4EF1090744101DDBDAC
:10026000EFF21FED4111B70708003EC291473EC6AD
:100270004C008547371501403EC4EF1070724101B4
:10028000D1BDEFF2FFEA4111B70708003EC2C147F6
:100290003EC64C008547371501403EC4EF105070F4
:1002A00041014DBDEFF2DFE82A86B705040037159E
:1002B0000140EF2060062945EF20A04761BDEFF225
:1002C0003FE72A86B705080037150140EF20C00434
:1002D0002945EF200046BDBDEFF29FE50545C53736
:1002E0000545C9370145E13F01456D3FA5B5EFF231
:1002F0003FE40145453F0145D9370545653705458B
:100300007D3F89BDEFF23FE12A890144930900084E
:10031000A14433D5894033752501553705455937F3
:10032000014505044137E31694FE05B5EFF25FE0A1
:10033000B705080037150140EF10707D2A84294564
:10034000EF20203F228539B5EFF2FFDC0545853FE0
:1003500081443937014493090008214905459937FB
:10036000F13785476317F500B3D799405D8C137457
:10037000F40F014585043D37E39224FF19372285A8
:10038000E9B3EFF2FFDA05451D3F0545213F793F0F
:100390002A840145013F228575BBEFF27FD90537DD
:1003A000054509370145FD3D75B3EFF27FD82A8435
:1003B00025371305400CB937E9372285A137D137E6
:1003C000213F1305500C3D3F6D3FBD3F2A8405453D
:1003D000E937313F2285BDBBEFF29FD541112EC6D3
:1003E0002A84DD3D1305400C313F613F2285193FD2
:1003F000493FB2452E8539376937D53D410199BB13
:10040000EFF21FD32C219307A00A30316390F50639
:1004100093075005631CF6041C2105476397E70208
:100420001C3109476381E7026365F700814581CB91
:1004300015B3F11793F7F70F8945E36BF7FE0D45F9
:10044000EF106071F5B78545DDBF09476396E7009A
:100450000831EF103014E9BF0D47E39BE7FC1C3176
:10046000E1FB81450945EF108070D9B737450000A1
:10047000130585D2EF20004A65BF93171500898BBD
:10048000AE97239AF180B70700209387C70198376A
:10049000937615008CA7719B558F98B705810947F6
:1004A000B1476363A70091472384F18082800547A9
:1004B0002388E184A387A1848280894763EFA70012
:1004C000B70700200A059387C701AA9788339C23A2
:1004D0002205137505303E9582801305C012828077
:1004E000B77702409A23136727009AA39A234207FB
:1004F0004183759B420741839AA39623196721077D
:10050000558F9AA31387818A420741839AABD823D8
:100510001377E70FD8A313077007BAA3D82313677D
:100520002700D8A3B7E700E03707020023A2E710AF
:1005300082801387C1881C2F93F7F7FC93E707038A
:100540001CAFB77702401307400ADAA7FAA78280E8
:100550009387C188982F1377F7FC98AFB77702403D
:100560001307200ADAA7FAA78280EFF27FBCEF1008
:1005700000281384C18811E9E13F1E2C7D776D1797
:10058000F98F232004001EACF1B6930700F85CA895
:100590001E2C7D77130707FBF98F93E787041EACAA
:1005A0002304040023050400231704002319040076
:1005B00023200400BD3F2D37C1BFEFF27FB74111AB
:1005C000B16705443EC24C0091473715014022C433
:1005D0003EC6EF10F03C370701401C4F714693E7D1
:1005E00007301CCFB777024021479AA3715798B7BD
:1005F00081451385C188AD361385C1861146938523
:10060000418000A10505EF20C0258537D13D41017E
:1006100091B6EFF2FFB183D7418A37740240898BDC
:10062000638607145E24898BC1CB83C7818305470A
:100630006390E7045E240945C207C18393F7E7F19D
:10064000C207C1835EA45E2493E707045EA4EF2083
:10065000400E4A245E240589C207C18393F7E7F15F
:10066000C207C1835EA45E2493E7070A5EA4DDB4DB
:1006700009476391E7047E240945C207C18393F7C4
:10068000E7F1C207C1837EA47E2493E707047EA41A
:10069000EF20200A7A247E24C207C18393F7E7F172
:1006A000C207C1837EA47E2493E7070A7EA49377C2
:1006B0001700DDE7014565BF5E240945C207C18318
:1006C00093F7E7F1C207C1835EA45E2493E70704B2
:1006D0005EA4EF20000646245E2409458588C207F3
:1006E000C18393F7E7F1C207C1835EA45E2493E759
:1006F000070A5EA47E24C207C18393F7E7F1C2070D
:10070000C1837EA47E2493E707047EA4EF206002C9
:100710007E247A24858B420741831377E7F14207D1
:1007200041837AA47A241367070A7AA43717014011
:1007300018479316170163D4060093E4040437178F
:10074000014018479316070163D4060093E7070496
:10075000377702401A23118B11C793F70704B9FBAF
:10076000094531B713C50404198111B75E24094541
:10077000C207C18393F7E7F1C207C1835EA45E2479
:1007800093E707045EA4EF10D07A46245E2409455F
:100790008588C207C18393F7E7F1C207C1835EA4CE
:1007A0005E2493E7070A5EA4EF10B0785E24858B81
:1007B00099C393E48400B71701409C47139717012E
:1007C0006354070093E40404377902408357E90037
:1007D0000945C207C18393F7E7F1C207C183231715
:1007E000F9008357E90093E707042317F900EF1096
:1007F00050740354E9008357E90009450588C2078E
:10080000C18393F7E7F1C207C1832317F900835728
:10081000E90093E7070A2317F900EF109071835757
:10082000E900858B99C313648400B71701409C4786
:10083000139707016354070013640404B777024059
:10084000DE27898B89CB058813F51400E30104E2C8
:1008500001D9054529BD93F7840421470145639BD0
:10086000E70093770404054591E7137594007D151F
:100870001335150013748404A147E31AF4DEE31B57
:1008800005E293F7940005476393E700094593F465
:100890000404E38E04DCE9B5EFF29F899384C188F8
:1008A0009E2C4111898BB5C3AD3311C5238504003E
:1008B00041016FF03F8ABC241147850793F7F70F7A
:1008C0006364F700BCA4EDB79E2C2385040013F7E6
:1008D000D7FF9AAC918BE9FF054480C0EF10404CE4
:1008E0000145EF00F07E23910184938701859823D1
:1008F000E31087FC2380070083C7F18481C7EF00E2
:1009000050737DB7EF00307465B721331384C1880D
:10091000AA8509C93C241147850793F7F70F63653A
:10092000F700BE852CA469B71E2C2305040093E7AD
:1009300027001EAC918BADFF2AC6EF00506BB2456D
:1009400039ED377702405E27898B81E77E27898BD7
:100950008DCF854713878183B7760240639AF5026E
:100960009E22C207C183ED9BC207C1839EA20CA336
:1009700089472EC61CC0EF009067B2452A863745CE
:1009800000001305C5BEEF10F078231704000DB763
:100990009E2293E747009EA289471CA3D1BF8547AB
:1009A00037770240639AF5021E23C207C183ED9B8D
:1009B000C207C1831EA3377702405E27898B81E778
:1009C0007E27898B91CF374500008947130545C0A5
:1009D0001CC0EF10307455BF1E2393E74700D9BFEA
:1009E00037450000AD47130585C11CC0EF1090725C
:1009F0009387218496230567130777BBE377D7F89E
:100A000005671307E7BA9AA349B7B77702409A2355
:100A1000118B51CFFA2713670701FAA7B777024066
:100A20001307F004C205BAA3C1818EAB4206D4B34A
:100A30004182F2A3D82313671700D8A39837A38461
:100A40000700D82313672700D8A32DC19837620762
:100A50006187E35D07FE98371367070898B79A2305
:100A6000118B39CBFA27420741833D9B42074183D3
:100A7000FAA7B77702409A23136727009AA39A230D
:100A800042074183759B420741839AA3D82313777A
:100A9000E70FD8A31387818A420741839AAB1307D4
:100AA0007007BAA3D82313672700D8A38280DA2758
:100AB00013670701DAA79DB7DA27420741833D9BF9
:100AC00042074183DAA775B7B777024098374111DB
:100AD00022C6137707022DCB983785461367070286
:100AE00098B798370D8B6311D706B6271546637DE7
:100AF000D604BE2799461384818A6396F6001C208B
:100B0000FD8B6383E7047945EF10B042EF00304E70
:100B10009307100419C1930710069386C18303A796
:100B2000418A9CA21C301583058BB98BD98F9CB24E
:100B3000377702401E23A1660946D58F1EA3814642
:100B40009385C1830145D135B77702409837620755
:100B5000618763500704DA27B70602004207418322
:100B60003D9B42074183DAA7FA27420741833D9B19
:100B700042074183FAA737E700E02322D7181387FB
:100B8000C188162F93E6160016AF9837136707082B
:100B900098B7B777024098371377070409CF98378B
:100BA0001367070498B7EFF05F9C37450000130503
:100BB00085D1EF1070673244410173002030EFF2AD
:100BC000AFD41387C18C143393D725009207D58FE8
:100BD0001CB3814793F6F70F05076390D508890585
:100BE000114993F4F50F377A0240994A7D19137928
:100BF000F90F630E0904B7E700E03707020023A2EC
:100C0000E718814626869385C18C0545FD3B130474
:100C1000A00F854B7D141374F40F69D883479A0095
:100C200093F70702A9C383479A0093E70702A30437
:100C3000FA008357AA006398FA0283C7818AFD8B62
:100C4000639377039387C1889827090798A7EFF0E4
:100C50003F89133519006FF0AFCEB306F50094222B
:100C6000850714B385BF0D45EF10B02C65B793868B
:100C7000C188962E2386B18C13F686009387C18C8B
:100C80001387C18801C693E505028CA303C807003A
:100C900013F606049365080419C29365080818271B
:100CA0008CA3C18A398B81EA98B309C5983313673D
:100CB00007F898B3828013671700FDB793F73500E4
:100CC00091EBF146854763E8B600EFF26FC6C53D8C
:100CD0006FF04FC885473E858280EFF26FC59387DE
:100CE000818A9C339388818A014713D847001378FF
:100CF00078009385818A130E000C9376F70F3A855E
:100D00001316270063FA060103C35800050791086C
:100D10001373030CE313C3FFA38CD1821307E00307
:100D2000D8B193F7F7F813174500D98F1385C1860B
:100D30009CB114A189050505EF10B0326FF08FC189
:100D40007D150A05AA959C31B821A2074207BA97DA
:100D50009821BA9719C613F7F73FA9453307B70289
:100D60001AA289CAA98393F7F73F13072003B38711
:100D7000E7029EA28280EFF2AFBB83C7918341114D
:100D800063E4A700AA8401ED374400001305C4BA48
:100D9000EF1090491305401FEF10101DC5BF1384BD
:100DA000818A93172500F517130924009385C186BE
:100DB000BE9511464A85EF10D02A9306E1007000D7
:100DC000CA850545B53F30872C8637450000130599
:100DD00005BCEF10303489450145513D38203C3089
:100DE0009204931627008D8BD58F93F7F70F3CB0A5
:100DF0008A071983B18BD98F93E4340091454A85D2
:100E000044B05CA06D3B194711C17D479387C188F1
:100E100098C39A2F856623970700558F9AAF410193
:100E20006FF04FB3EFF22FAF1387C188362B83C714
:100E3000F18341111384C188BE9636AB18439306E3
:100E4000000263E3E60291660A07938606AE3697D0
:100E5000184302871387218416230566130676BB81
:100E60006364D600B6971EA31E2C858B638A072663
:100E700003C9818A230B040045471379F9019307BD
:100E8000F9FF93F7F70F9384818A6362F74611673E
:100E90008A07130747B6BA979C43828737450000F5
:100EA0001305C5C2A3880184EF101038EFF0EFEBF3
:100EB00065BF7A24BA97C207C1837EA41307F07C6A
:100EC000E374F7FA5C381547850793F7F70F5CB8BA
:100ED000E37EF7FCA30A04002320040071B77A2400
:100EE000BA97C207C1837EA41307301FE37EF7F6CB
:100EF0001E2CED9B1EACFD471CC019A8B545014535
:100F0000BD338145014565393335A000160508C05C
:100F10002317040091BF1E2C9306900A014693E705
:100F20004700814505451EACEFF03FAEEFF04FDBCB
:100F300023200400F1BF138621841A22856693863C
:100F400076BB63ECE600BA97C207C1831EA20545D3
:100F5000E3FCF6F0EF00D01701BF7A24BA97C2077E
:100F6000C1837EA41307F009E370F7F01E2C23174A
:100F70000400ED9B1EACB1471CC0FDB57A24BA97A6
:100F8000C207C1837EA41307F009E37FF7EC854510
:100F90000145F13903C78180B14737050020A145DC
:100FA0006303F70091451305C501113935F1374544
:100FB0000000B547130585C31CC0EF10F02689BF9C
:100FC0007A24BA97C207C1837EA47547E37EF7E807
:100FD0009307000255B77A24BA97C207C1837EA44B
:100FE0000947E373F7E88D450145513181450145D6
:100FF000F936E31205F037450000130585C5EF10FB
:10100000B022C9471CC02317040003C5018499B747
:101010007A24BA977EA43D2339E1994589398145DF
:101020000145713EE31905EC03C5E18483D5C18414
:1010300083C711858DC30546EF00F04F0547A38296
:10104000E18429472393E18437450000130505C651
:10105000EF10901DF1BD0146EF00F04DF5B77A2479
:10106000856793878738E3F1E7E03745000013058C
:10107000C5C6EF10701B8DB51545EF10E06E1E2C28
:10108000938A2400ED9B1EAC374B0000B931138AC4
:10109000918383470A0063F827053745000013054D
:1010A000C5BBEF10701803450A0089479389A184D6
:1010B0001389818463FAA7040D4575398D47238010
:1010C000F900BC34B824A20793F70730BA9723106D
:1010D000F900EFF0EFC01E2C23190400F99B1EACA1
:1010E00041016FF08F864A859306E1007000D68536
:1010F000813934873086CA8513054BC80509EF103E
:1011000070011379F90F61B7BD3183470A0023805D
:10111000F900FD178A07BE94BC30B820A20793F7E8
:1011200007106DB718402317040099476315F7009F
:10113000A5471CC079BFEF00806B7DD959BFEC205B
:10114000374500001305C5CAEF10C07C0945EF10F4
:10115000A061CC3037450000130545CC91859D89B1
:101160000CA8EF10207B142819479387F6FF93F7FC
:10117000F70F6375F7009307000265BFF0201307B0
:101180005005938701846317E608F8309305A00A99
:101190006312B7088C24639FC5069034631CE6066F
:1011A00083C581803146138741846391C50623003E
:1011B00007000D4798A38546A388D184882393060A
:1011C000E1007000938524002387A184EFF05FB7CE
:1011D0002C86A94737450000B3D7F502130505CE85
:1011E0002396F184EF1000739C201A2C231704001F
:1011F00093F7070C938707F893B717009A071377AD
:10120000F7FBD98F1EACBD471CC0E1B5054610A346
:1012100094A355B794A35DB783D5818403C5A184F6
:10122000EF00102C37450000130545CFEF10C07FAD
:10123000A94701B70545EF10205391450145EFF04F
:101240001FA33705002091451305850AEFF01FA75E
:1012500049B50545EF1040518D450145EFF03FA1DF
:1012600081450145E5B70545EF1000508545054529
:10127000EFF0FF9F37050020F14513050500F9B792
:101280000545EF10604E89450545EFF05F9EA1458D
:101290001385C18065BF0545EF10004D914575BFB1
:1012A000BC2093F7070CE39607E20545EF10C04B0F
:1012B000BD450145EFF0BF9BBC301A2C914593F71B
:1012C0000706B337F0009E071377F7F7D98F1EACE8
:1012D000BC201385240093E707F8BCA085BF054513
:1012E000EF10804813852400EFF08F91DDB3374570
:1012F0000000130505D0EF102073E1BBEFE25FE3C0
:101300008D47C145014523A8F18EEFF05F969145C9
:101310001385018FEFF09F9A6FE0DFE3EFE25FE16B
:101320008947C145014523A8F18EEFF05F949145AF
:101330001385018FEFF09F986FE0DFE1EFE25FDF51
:101340009147C145014523A8F18EEFF05F92914589
:101350001385018FEFF09F966FE0DFDF01A001A002
:10136000EFE21FDD79711306000281450808EFE006
:101370003FDF37140140A1474C00130504803EC2F3
:1013800002C402C6EF00D06189474C0013050480F7
:101390003EC23724014002C6EF00906013050440AE
:1013A000EF00D04C1305044093055002EF00D054D9
:1013B000854737070E000C08130504403ECC3ACE93
:1013C0002302F10202C802CA02D0EF00904C854508
:1013D00013050440EF00505145616FE0BFD7EFE2C5
:1013E0003FD53765220085451305F5A1EF10A00D07
:1013F0006FE05FD6EFE2DFD32A8415654111130554
:1014000055552EC6EF00707F1375F40FEF00707FF7
:10141000B2452E85EF00707FEF00B07FEF104000E7
:1014200041016FE03FD3EFE2BFD00545EF10200050
:10143000EF00B037EF10802D5D3737150E00EF103D
:1014400000361929EF00006F83A581813745000020
:10145000130505D4EF10004CEF00D04AAA8537459C
:101460000000130505D5EF10E04A374500001305CD
:1014700005D6EF10605BEFF04F949305F002130573
:10148000703E2926F13D0545EFE01FD831288565DE
:10149000938505FA1545B93FEF00B0774529DD2161
:1014A000F124EF003012CDBF938701902390070005
:1014B00023920700239407008280EFE27FC78567AD
:1014C00093877738AE841384019063E1A704AA85DB
:1014D00037450000130545DDEF10C043856793874E
:1014E00087385EA0954793952400B3C5F50237452C
:1014F0000000130585E06CA093F5F50FEF10804117
:101500001C3099E38D471CB06FE0DFC40D691309EF
:1015100009EE637CA900AA85374500001305C5DEE6
:10152000EF10403F2312240175BF4AA065BF138707
:10153000019018339387019019E3054798B32392DC
:101540000700828003C511908280EFE2DFBC13891F
:10155000019083470900854993840190638937038B
:1015600089CB09476384E7060D47638FE7086FE07F
:10157000DFBD371501400546914513050580EF0095
:10158000B0598D472311F90023003901CDB7BE2092
:1015900083C6F183228763E5F6022391040089471D
:1015A0009CA0014493840190294905041374F40F0D
:1015B0002285EFE09FDFA8A48504E31824FF45BF40
:1015C000958FC207C183BEA0DDF3D1BF1384019004
:1015D0001389A400B74900002C241385C9DB050436
:1015E000EF104033E31A24FF374500001305C5BB55
:1015F000EF108043EC248D47154593E545009CA0F2
:10160000CCA8EFE07FDDA5B737450000130545DC2A
:10161000EF10804191472300F90091BFEFE2BFAF87
:10162000938701909C331547FD1793F7F70F636479
:10163000F70211678A07130787D6BA979C4313846A
:10164000019082876C24154593E545004CA8EFE096
:10165000BFD889471CB06FE05FAF37450000130566
:1016600045DCEF10603CA3000400231204002314A7
:101670000400D5B770205E207D7750A83034130762
:1016800047D5BA9713662600C207C183514750B8A1
:101690001306000533D7E70293840190014993892B
:1016A0002185114AB3D7C7022399E1840D8B7CA809
:1016B0005C34819B93E78701BA977CB8CC280509F5
:1016C0001379F90F4A85EFE03FD18504E31849FF0C
:1016D0005E20A30024012390F900B5BF83D52185A6
:1016E00037450000130505D8EF10C02295471CB000
:1016F0001E2481E7B1473EA0B9BF8547EDBF3E201C
:1017000003C7F183636FF700231104006C2499472A
:101710001545E59993E525001CB04CA8EFE0DFCB1B
:101720001DBF998FC207C1833EA095F7C5B79384AB
:1017300021858E2037450000130505DAEF10801D46
:101740009A205E201AA46300F70281CF8D471CB057
:10175000371501400546A14513050580EF00D03B34
:10176000DDBD8547EDB7A3000400DDB7EFE25F9C68
:1017700083C701900D476366F700EFF01FDD6FE050
:101780007F9D1147E39DE7FE513DD5BFEFE25F9A94
:10179000011137340140E884EC82130504C04C0881
:1017A000231B0100231D0100231E010002C602C8E5
:1017B000EF0010608545130504C0EF00F068930743
:1017C00030127C8685475C87680085473EC8EF00FD
:1017D00070460546130504C08545EF0050648545F5
:1017E000130504C0EF00306205616FE0BF9603C5CA
:1017F00041858280EFE2DF9383C741858DE3371512
:1018000001400546854513050580EF00F03005468B
:10181000A14537150140EF0030306FE0BF93371519
:1018200001400146854513050580EF00F02E014675
:10183000C5B7EFE2FF8F0547238AE184653FEFE0FC
:10184000DFD76FE03F91EFE2BF8E238A01845D37DF
:10185000EFE0BFD66FE01F90EFE29F8D411185450D
:10186000114502C202C402C6EF00F045854541455C
:10187000EF00704537140140854441494C00130581
:10188000048026C24AC626C4EF009011A1474C002E
:10189000371501403EC24AC626C4EF00701091477A
:1018A0004C00130504803EC24AC626C4EF00500F08
:1018B00091371305048001469145EF00F02501465C
:1018C0008545130504C0EF00302541016FE09F8876
:1018D000EFE21F8683C74185ADC711E9EFF03FC531
:1018E00037450000130585E2EF10001435A8854741
:1018F0006310F5020145EFE05FBCAA85056513059D
:101900008538EFF09FBB37450000130545E3E9BF7D
:101910008947631DF5000545EFE03FBAAA850965D3
:1019200013058532EFF07FB96FE0DF828D47E31D4D
:10193000F5FE0945EFE07FB8AA850D65130505EEB4
:10194000D5B737450000130545E479BFEFE24FFEF8
:1019500037340140130504C001468545EF00304C83
:1019600083C6518583C7E1838545B387F640A38F3E
:10197000F182130504C00546238FD182EF00304A5F
:101980006FE04FFDEFE2CFFA1387C18883C6F18382
:101990001C37B69793F7F70F914663E7F6001CB72D
:1019A000EFF04FC86FE00FFBA3040700EFE0DFEE9E
:1019B000C5BF411122C6373401408545130504C017
:1019C000EF00104719C99387518598238545130562
:1019D00004C0050798A3EF0030473244410173006B
:1019E00020309387019223800700A380070023847F
:1019F000070023880700A3840700A3880700238922
:101A00000700A3890700238A0700A38A0700238B06
:101A10000700A38B0700238C0700A38C0700238DEE
:101A2000070013070003B8BBA3890710239A071008
:101A30008280EFE24FEE3971B714014041499307BC
:101A400080020C08138504804AC83ECC02CA02D624
:101A500002D802DA02DC231E010202CE02D002D238
:101A600002D402C402C6EF00A0739307000291499A
:101A70000C08138504803EC84ECCEF0060729307BB
:101A8000000405443EC80C08E147138504803ECCA1
:101A900022CAEF00E070930700080C081385048049
:101AA0003EC84ECCEF00C06F6C10214A9D473735C1
:101AB000014052DC231EF10202D602D802DAEF0006
:101AC000502493071002894928007C8423053101A2
:101AD00022C6EF00301691450145EF00300F68082F
:101AE0004ACE52D222D402D01D259307402128008D
:101AF0007C842305310122C6EF00D01305469305EF
:101B0000000637350140EF0090249305F00F37357C
:101B10000140EF00B025854537350140EF009021A9
:101B20000C08138504C022C84ACC22CA952D216115
:101B30006FE0AFE1EFE2CFDFEFF0BFEAEFF07FEF72
:101B4000938701920547A389E71013074006239A5C
:101B5000E7106FE02FE0938701923E953839854773
:101B6000B395B700D98D93F5F50F2CB98280938783
:101B700001923E9538398547B395B70093C5F5FF77
:101B8000F98D2CB98280411193050006373501404B
:101B900022C6EF00301E25C537350140EF00501D2D
:101BA0007D1542054181994763E4A70C91679387AE
:101BB00047E50A053E951C411384019282872C3823
:101BC00037350140EF00901A37350140EF00501AC9
:101BD0001387618514239305100705469387160024
:101BE0001CA3938741A4B69788A337350140EF0023
:101BF00010169305000637350140EF00301A9305A3
:101C0000100737350140EF00F01609CD83C561811B
:101C100037350140EF009015930510073735014027
:101C2000EF00D017854537350140EF00B010324442
:101C30004101730020304C2861B74C3851B76C28F3
:101C400041B76C3837350140EF005012182C238B08
:101C5000E1809DBF0C3C37350140EF003011382C3E
:101C6000FDB72C3C37350140EF0050107828C5B740
:101C70007D57F1BF4145092339C54145292B7D5782
:101C800001469305100737350140238BE180EF00B3
:101C9000100CA38B018403C561858147014893869D
:101CA000718513876185138681A3938541A493F879
:101CB000F70F63ECA8006303080088A28546238C15
:101CC000D1842300070073002030B388F50083C857
:101CD00008003308F6008507230018010548C1BF36
:101CE000EFE20FC51307C0129307C0126363B7007A
:101CF000AE8713970701938701924183C546B4BB12
:101D0000931615001355870036951375F50FE8BB2C
:101D10001377F70F98AF0547A389E7101307200340
:101D2000239AE710AC3B37450000130505E7EF00A9
:101D3000703E6FE02FC2EFE2AFBF2A89AE841384FA
:101D400001929307200311CA894763E6A7007C2804
:101D500093E787007CA8930740023CB82C383745AE
:101D60000000130505E7EF00F03A060913D58400DB
:101D70004A951375F50F68B893F4F40F04ACF15756
:101D80003CBC8547A309F41093072003231AF410E1
:101D90006FE04FBC1365C50F93870192A8BF828087
:101DA00093870192A3890700238A0700A38A07006B
:101DB000238B0700A38D0700A38907101547239ADB
:101DC000E7108280EFE22FB59387019283D7471106
:101DD00013840192C207C183BDC38357441103C753
:101DE000F18363EAE70A83574411998FC207C183DD
:101DF000231AF41083574411C207C183A9E3834512
:101E0000341137450000130505E9EF00B0300346F3
:101E10003411371501408545130505C0F5293C38B7
:101E200013070003631DF700834734110547631848
:101E3000F700A309041093072003231AF41003C723
:101E400081858547938981856315F70483C57185ED
:101E50001389718591CD938481A39C2093063008CA
:101E6000638AD70A63ECF602130720086384E70647
:101E7000238009000144938481A3B749000083456E
:101E800009006368B40C374500001305C5F0EF0086
:101E900070286FE08FAB231A0410A9BF1307400806
:101EA000638FE70813076008E394E7FC8D47E3912D
:101EB000F5FC37450000130505EFEF00F036AC20C8
:101EC0008830EFE08FDB83D7418A898BBDEFEFF05D
:101ED0005F9679BF89476398F5028C3037450000DB
:101EE000130585EAEF0010238C300D45EFF03FC855
:101EF0009C305CA8A30A040081C7EFF02FC28DBFFD
:101F0000EFF0CFBFB5B737450000130585EBEF0005
:101F10007020B9BF8947E39DF5F45C28E31AF7F414
:101F20008C3037450000130585ED4CB87C2893F7BD
:101F3000B70F7CA8EF00101EEFF04FC015BF894708
:101F4000E398F5F29C307CA825B70545EFE02FD645
:101F500005B7B38784008C23138549F00504EF008F
:101F6000701B1374F40F21BFB71702409843B706D4
:101F700000F99386F6F51367170098C3D8431367E3
:101F80000705D8C3D843758FD8C3372702401443F9
:101F9000F19A14C3144393E6260014C3D84313776D
:101FA000F7F0D8C3D843D8C38280B7160240DC42CA
:101FB000918313F7F700B707002093878702BA973A
:101FC0009C23D4423777DC0293F7F70F130707C03F
:101FD00093F606083356F70099E23356F70223AC1E
:101FE000C180828001A097F1FF1F9381218C17315E
:101FF000002013012101172500001305E5FB97E5DB
:10200000FF1F938525001386818363FAC500832211
:10201000050023A0550011059105E3EAC5FE1385CF
:102020008183938541A56377B500232005001105C1
:10203000E36DB5FEFD42739002BC8D427390428009
:10204000930280087390023097E2FFFF9382C2FBF5
:1020500093E2320073905230EFF01FF197F2FFFFDE
:102060009382A23C7390123473002030B727014052
:1020700093870740631EF500EFE28F8B85451305BC
:1020800000208D21814513050020A9296FE08F8C48
:1020900082805C413707F1E01307F7EF944D7D8FA5
:1020A0009C41D58FD44DD58FD441A206D58FD98FE1
:1020B0005CC11C4537F7F1FF1307D77FD4457D8FEF
:1020C0009C49D58F94458606D58FD98F1CC55C5504
:1020D000370710FF7D177D8FDC29FD1793F7F70F6A
:1020E000D207D98F5CD582801C4589C593E717003C
:1020F0001CC58280F99BEDBF3C4993F707E0DD8D5D
:102100002CC98280B7F7FF1F03A547708280584112
:10211000032805004C4537060140930706403E97CB
:102120009346F8FFB1C583250640F58D2320B640C0
:10213000D043F18ED4C31443B3E6060114C318414F
:1021400090479346F7FF758E90C7D047F18ED4C75E
:10215000144541466399C6009447D98E94C7D44725
:10216000558FD8C78280B6979443558F98C3828085
:102170001C43F58F1CC38280B707014013870740BB
:1021800083A70740584B698F09C77D8D3335A00061
:10219000828001458280B707014023AAA740828040
:1021A0009845937707011378F70081C7DC413368BE
:1021B000F8009441814713F6F60F39C21C410146DD
:1021C000854E3D4F930F800293028004214EB398B9
:1021D000CE00B3F516016391B80213132600B315B0
:1021E0006F0093C5F5FFED8F33136800B367F300FD
:1021F0006317F70D232A15010506E31AC6FD1CC156
:102200004166130606F0758E3DC2371601409305F0
:102210000680631BB50A83A7C181A145854E3D4F4A
:10222000930F800293028004414E3393BE0033F635
:1022300066006312C302139625000116B318CF007F
:1022400093C8F8FFB3F7F8003316C800D18F6319AD
:10225000F709232A65008505E399C5FD3716014076
:102260005CC1930506806312B50823AEF180C16797
:1022700063E6F604504D8147054E3D4F930F8002B3
:1022800093028004A14E93850701B315BE00B3F8F5
:10229000B600639115039398270033131F0113436E
:1022A000F3FF3376C300B318180133E6C800631A8E
:1022B000F7054CC98507E398D7FD50CD8280E31D13
:1022C00057F2232815010DBF930506C06315B5000D
:1022D00083A7018299B7E312C5F483A7418235BF72
:1022E000E31B57F623286500BDB7930506C06315A9
:1022F000B50023A0F182A5BFE31BC5F623A2F1829E
:10230000BDB7E31957FAB315FE000CD165B7084500
:102310006D8D3335A000828001CA93970501C1837A
:102320001CC9C1810CD182804CC98280B708014090
:1023300083A748001357050193160501370630009F
:10234000131345003D8BC1823378C50063500306EB
:102350006313C80203A64800370700F17D17F98F01
:10236000718F23A2E8009DC1458113750507339540
:10237000A600C98F21A813169500635D0600378754
:10238000FCFF7D17F98F99C1BE06D58F3707014035
:102390005CC38280370620006313C80041071D46D6
:1023A0003317E6001347F7FFF98F75BF6315C800B1
:1023B00041070D46F5B71316B500E34C06FE13575B
:1023C0001501137707073397E600E9BF93F7F50088
:1023D000918113972500B7050140BA95944586076A
:1023E0000D473317F7001347F7FF758F98C59845CA
:1023F0003315F500598D88C58280B737004088C3F2
:102400008280B7370040C8C38280B737004088C792
:102410008280AD67373700409387A7AA1CC38280AC
:10242000B567373700409387C7CC1CC3828023AE83
:10243000A184828003A7C185854714216310F70218
:102440001C31639CE7023C21960793E707F837E7C6
:1024500000E093F7F70F36972300F740054793D72F
:1024600056003317D700544189CE938707048A0753
:10247000B7E600E0B69798C38280EDF33C2196075B
:10248000F9B793870706E5B7B777DC02938707C0EC
:102490001CC137160240584211839376F700370764
:1024A00000201307870336971423504293F6F60F44
:1024B0001376060833D7D70019E233D7D70258C1AD
:1024C00018C558C5828099C5371702401C4F5D8DCD
:1024D00008CF8280B7170240984F1345F5FF798DDA
:1024E00088CF828099C5371702405C475D8D48C709
:1024F0008280B7170240D8471345F5FF798DC8C7CA
:1025000082801A218D6793870704B6217D8F9E21D3
:10251000D58FD621D58FF621D58F9625D58FB62587
:10252000D58FD625D58FF625D58FD98F1EA19E297B
:102530001EA982801E2189C593E707041EA18280FF
:10254000C207C18393F7F7FBC207C183C5BF8547A5
:102550009181B395B7005E21C205C18101C6DD8DB1
:102560004EA1828093C5F5FFFD8DDDBF4EA5828013
:102570004A2582805E21162513F7F500054533179D
:10258000E500C207758FC18301CB91813315B5007A
:102590007D8D3335A000828001458280BD898547CD
:1025A000B397B70093C7F7FFC207C1831EA5828008
:1025B0001E2137370140130707C0C207C1836306D6
:1025C000E500370700406316E500BA2193F7F7F8F6
:1025D000D98FFA2193F7F7CFC207C183D98F1EA1F4
:1025E000DE215EB59E211EB5B7370140938707C037
:1025F0006306F500B70700406314F5009C251EB97B
:1026000085475EA982801E2189C593E717001EA118
:102610008280C207C183F99BC207C183CDBF5E25FB
:1026200001C6DD8D4EA5828093C5F5FFFD8DDDBF12
:102630001E294A25ED8F4205418189C76D8D3335AD
:10264000A00082800145828093C5F5FFC205C1814B
:102650000EA98280EFD2DFAD1629F577FD17F58F31
:10266000F621DA250111D58F1EA95625FD7793870E
:10267000379FF58FD6212A842EC6D58F9625D58FE4
:10268000B625D58F5EA55E29C207C18393F7F7CF24
:10269000D98F5EA90808EFF03FDFB7470140938765
:1026A0000780B245631EF402F2476547B387E7022D
:1026B0009841930640060A07B3D7E70233D7D702FB
:1026C000B3F7D7021207920793872703B3D7D7022E
:1026D000BD8BD98FC207C1831EA405616FD09FA790
:1026E000E247E1B791C55E250967D98F5EA5828073
:1026F0005A25F977FD17F98FD5BF93F5F51F4EA130
:1027000082800A216D8D3335A000828083A781816C
:1027100037177A0013070720B3D7E70293F7F70FAD
:102720002381F1861307803EB387E7022390F18669
:102730008280B7F700E0D8438146799BD8C303C7AE
:1027400021863306A70290CBD4CB984313670701A9
:1027500098C398431367170298C3D843058B75DF56
:102760009843799B98C38280B7F700E0D8438146AD
:10277000799BD8C303D701863306A70290CBD4CB6D
:1027800098431367070198C398431367170298C3C8
:10279000D843058B75DF9843799B98C38280EFD22D
:1027A0003F9901112A8485451165EFF0DFD18545F8
:1027B0002145EFF05FD1930700403EC2371501403D
:1027C00085473EC44C00E147130505C03EC6EFF007
:1027D0003F9D22C837440140B70708000C08130585
:1027E00004803ECC02CA231E0100EFF0BFE68545FF
:1027F00013050480EFF01FEF05616FD0BF95EFD296
:102800009F91B7440140AE8932890144938404808A
:10281000634524014A856FD05F93930500042685A4
:10282000EFF03FEE7DD9B3878900838507002685C9
:102830000504C205C181EFF05FECD9BF1387818227
:102840001C43938641A53E95636BD500B756002087
:102850009386068063E5A60008C33E858280FD5707
:10286000EDBFB3C7A5008D8B3307C50081E78D474A
:1028700063EDC700AA87637EE50894218507850577
:10288000A38FD7FEE3EBE7FE828093763500AA871D
:1028900089CA942185078505A38FD7FE93F6370053
:1028A000C5BF9376C7FF138606FE63F0C70683A3F2
:1028B000050083A2450083AF850003AFC50083AE4A
:1028C000050103AE450103A3850183A8C5019385D6
:1028D000450223A0770003A8C5FF23A2570023A425
:1028E000F70123A6E70123A8D70123AAC70123AC38
:1028F000670023AE17019387470223AE07FF75B722
:1029000090419107910523AEC7FEE3EBD7FEE3E6C6
:10291000E7F6828039713EDA2ED232D436D63AD8F2
:1029200042DC46DE9387C18222CC804326CA06CE93
:10293000AA8409C41C4C99E32285FD290C44541037
:102940002686228536C6EF009013F2406244D244B8
:1029500021618280011126CA4AC806CE22CC4EC609
:1029600052C4AA842E8901C51C4D91E3F1219C4CCF
:10297000804499E32685C921971700009387075C57
:10298000631BF402C0405E24A18BB1C71C48A1C7E1
:10299000FD59294A1C4483450900FD17B1E91CC4AF
:1029A00063DD07062286A94526856920FD57630851
:1029B000F502294535A0971700009387275A63141D
:1029C000F4008044C9B79717000093872755E31C8C
:1029D000F4FAC0444DBFA2852685192A55D97D55E4
:1029E000F2406244D2444249B249224A056182809F
:1029F0001CC4050963D70700184C63CAE700638845
:102A000045011C401387170018C08CA361B72286AC
:102A100026850D20E31035F9D9B71C401387170020
:102A200018C0294798A371B79387C182AA858843A4
:102A30006FF05FF2011122CC26CA4AC806CE4EC6FC
:102A4000AA842E89328401C51C4D91E3F52697177F
:102A500000009387A74E6317F406C0401C4C1CC4AB
:102A60005E24A18BC1C31C48B5CF1C480840937994
:102A7000F90F1379F90F1D8D5C486346F500A285A7
:102A80002685692C25E51C440505FD171CC41C4042
:102A90001387170018C0238037015C486388A7009C
:102AA0005E24858B81CBA9476316F900A285268514
:102AB000B5240DEDF24062444A85D2444249B24900
:102AC0000561828097170000938747496314F400DB
:102AD000804469B79717000093874744E310F4F8E0
:102AE000C044ADBFA2852685212041D17D59D9B7EB
:102AF00041119387C18226C2844322C44AC006C6BC
:102B00002A892E8489C49C4C99E3268535269717FB
:102B100000009387A742631BF402C0400317C40060
:102B200093170701C18393F68700ADEA93F6070177
:102B300095EEA5472320F900136707045AA47D5595
:102B4000B24022449244024941018280971700001A
:102B50009387C7406314F4008044C9B797170000F7
:102B60009387C73BE31CF4FAC0444DBF918B9DC3D0
:102B70004C5889C9930744046384F5004A85292B7E
:102B8000232A04025E242322040093F7B7FD5EA4E7
:102B90001C481CC05E2493E787005EA41C4899EB88
:102BA0005E241307002093F707286385E700A285BA
:102BB0004A8591295E2413F717001DC35C4823241E
:102BC0000400B307F0401CCC1C480145B5FB83173B
:102BD000C40013F707082DD793E707045EA485B751
:102BE000898B014791E3584818C4F9BFDE250111CC
:102BF00022CC26CA06CE4AC84EC613F78700AA843E
:102C00002E8479EBD841634DE000B841634AE0007F
:102C10000145F2406244D2444249B2490561828092
:102C200058547DD703A904009396370123A00400CC
:102C300063DB060670485E24918B99C75C401D8E4D
:102C40005C5899C33C401D8E5C540C5081462685CF
:102C50008297FD575A24631DF5009440F54763E8B9
:102C6000D706B70740208507B3D7D700858BA5C304
:102C70001C48232204001CC09317370163D80700A7
:102C8000FD576314F5009C4091E368C84C5823A09D
:102C90002401BDDD930744046384F5002685ED2EF1
:102CA000232A0402B5B70C500146854626850297B3
:102CB000FD572A86E311F5F89C40B5DF754763851B
:102CC000E70059476393E70423A0240191B71367F2
:102CD00007045AA47D5535BF83A90501E38A09F28B
:102CE00003A905008D8B23A0350133093941014724
:102CF00091E3D84918C4E35D20F11C540C50CA86F6
:102D00004E86268582976347A0005E2493E70704DA
:102D10005EA4C9B7AA993309A940F1BF9C49A5C3CC
:102D2000011122CC06CE2A8411C51C4D81E72EC686
:102D30002122B2459717000093874720639CF50036
:102D40004C408397C5009DC722856244F2400561CF
:102D50006FF0DFE997170000938747206394F50031
:102D60000C44C5B7971700009387471BE39BF5FCFE
:102D70004C44C1BFF2406244014505618280014577
:102D80008280411122C406C62A844EA572A5232042
:102D900005002322050023240500232205062328FD
:102DA0000500232A0500232C050021468145130533
:102DB000C505EFD0EFBA97170000938787B25CD0B4
:102DC000971700009387A7B41CD497170000938728
:102DD00087B85CD4971700009387E7BA00D01CD857
:102DE000B24022444101828097050000938545F35B
:102DF00091AA411126C2130680069384F5FFB3847D
:102E0000C4024AC02E8922C406C6938544070D2EEB
:102E10002A8401CD2320050023222501310508C481
:102E2000138684068145EFD0AFB32285B240224499
:102E300092440249410182801C4DA5E7411106C61A
:102E400022C497070000938767FA1CD593870183F4
:102E50009C43232405042326050423280504631426
:102E6000F50085471CCD2A84352848C022851D28B9
:102E700008C42285052848C4484001469145EFF022
:102E80005FF008440546A545EFF0BFEF484409460A
:102E9000C945EFF01FEF85471CCCB24022444101E9
:102EA0008280828041119387018326C284434AC075
:102EB00006C69C4C22C42A8981E72685EFF0DFF7FD
:102EC000938484048044DC40FD1763D607009C4053
:102ED000B9CF8440C5BF0317C40039E7C177850760
:102EE00023220406232004002322040023240400B8
:102EF0005CC423280400232A0400232C0400214658
:102F000081451305C405EFD0AFA5232A0402232C65
:102F1000040223240404232604042285B24022440C
:102F200092440249410182801304840671BF914595
:102F30004A85EFF01FEC88C049FDB1472320F90016
:102F40000144E1BF797122D44AD052CC56CA5AC842
:102F50005EC606D626D24ECE2A8AAE8A13048504D1
:102F60000149054BFD5B09ECB25022544A8592544D
:102F70000259F249624AD24A424BB24B45618280C1
:102F8000044483294400FD1963D409000040E1BFD3
:102F9000DE24637BFB008397E40063877701A685CB
:102FA0005285829A3369A90093848406E9BF197116
:102FB000A6DAAE848395E500A2DC86DE328463DB8C
:102FC0000500DE2423A0060093F7070885E7930792
:102FD00000401DA0300836C6EF007020B246E34224
:102FE00005FE7247BD67F98F7977BA9793B71700D7
:102FF0009CC2F1BF930700041CC0F6506654D6541F
:10300000014509618280DE25011122CC06CE26CA47
:103010004AC8898B2E8489CF930774041CC01CC8AE
:1030200085475CC8F2406244D244424905618280CF
:1030300074003000AA84EFF09FF7A2452A89268504
:10304000012219E98317C40013F7072061FFF19BE0
:1030500093E727005EA4C9B797070000938707D9B5
:103060009CD45E2408C008C893E707085EA4A24762
:103070005CC8B24781CF8315E4002685EF00D018E5
:1030800011C55E24F19B93E717005EA45E243369AB
:10309000F9002316240179B7DDC183A7C5FF4111CB
:1030A00022C406C626C21384C5FF63D307003E941C
:1030B000AA84EF00301C938741869C4381EF232232
:1030C000040023A281862244B24026859244410115
:1030D0006F00701A637EF40014403307D4006396C7
:1030E000E7009843DC43369718C05CC0D9BFBA8765
:1030F000D84319C3E37DE4FE94433386D700631FAE
:1031000086001040B29694C33386D700E31DC7FAF9
:1031100010435843B29694C3D8C375B76375C400BF
:10312000B1479CC04DB71040B306C4006316D7002A
:1031300014435843B29614C058C0C0C369B78280C4
:10314000011126CA93843500F19806CE22CC4AC8D4
:103150004EC6A104B14763F3F404B14463E2B4047E
:103160002A89EF0030119387418698433A8439E0E9
:10317000938781869C4391E781454A85252F23A427
:10318000A186A6854A853D27FD5963193507B147B4
:103190002320F9004A85EF00100E29A0E3D004FC9B
:1031A000B1471CC10145F2406244D2444249B24990
:1031B000056182801C40858F63CF0702AD4663F6B0
:1031C000F6001CC03E9404C031A05C40631387022B
:1031D00023A2F1864A85EF00100A1305B400930775
:1031E000440061993307F5405DDF3A94898F1CC034
:1031F0005DBF5CC3C5B72287404095BF130435004F
:103200007198E30285FCB305A4404A856525E31C5B
:1032100035FBB5BF1C46FD171CC663DA0700184E08
:1032200063C5E700A9476394F5006FF0BF801C42B7
:103230002E851387170018C28CA38280011122CC1F
:1032400026CA4AC84EC652C406CE2A89AE893284DE
:10325000B304D6007D5A63149400014509A80C20DC
:103260004E864A85EFF01FFB0504E31645FFF2404A
:103270006244D2444249B249224A05618280357192
:1032800022CD26CB4AC94EC706CF52C556C35AC116
:10329000DEDEE2DCE6DAAA89AE843289368409C54C
:1032A0001C4D99E3EFF05FB997170000938707C9AA
:1032B0006398F40C83A44900DE24A18BE5C79C48E5
:1032C000F5C393070002A304F1029307000302D29F
:1032D0002305F10222C6930B5002971A0000938A2D
:1032E000EAC9054C294B4A841C2099C3639F770D7A
:1032F000B30C2441638E0C00E6864A86A6854E8573
:10330000EFF0DFF3FD57630FF51C9256E69636D2C9
:103310001C206389071CFD571309140002C802CE44
:103320003ECA02CCA309010482D483450900154694
:1033300056852D2713041900C24751E913F70701D9
:1033400009C713070002A309E10413F7870009C79F
:103350001307B002A309E104834609001307A00282
:10336000638FE606F2474A84814625461820930576
:103370001400130707FD6377E60AB5CA3ECE85A899
:1033800097170000938787BD6395F40083A4890095
:1033900025B797170000938767B8E39FF4F083A4DD
:1033A000C90019BFA6854E85EFF08FF419D97D5558
:1033B000FA406A44DA444A49BA492A4A9A4A0A4BC4
:1033C000F65B665CD65C0D618280050431BF330517
:1033D00055413315AC00C98F3EC82289B9B7324771
:1033E00093064700184336C6634707023ACE1820B3
:1033F0009307E002631DF70418309307A002631BD4
:10340000F702B2470904138747009C433AC663C1D9
:1034100007023ECA2DA83307E04093E727003ACEC3
:103420003EC8F1B7B387670385462E84BA973DBF80
:10343000FD57C5B7050402CA8146814725461820B5
:1034400093051400130707FD6374E606F9F20C20D8
:103450000D46171500001305E5B2092511CD971784
:103460000000938727B21D8D93070004B397A70030
:10347000424505045D8D2AC80C2019461715000029
:10348000130585B0130914002304B102C12B35C103
:1034900097D7FFFF938707B795E74247B247137760
:1034A000071009CF91073EC69257D2973ED225BD4D
:1034B000B387670385462E84BA9751B79D07E19B72
:1034C000A107D5B7780097060000938666D72686B1
:1034D0000C084E8597000000E7000000FD572A8A7F
:1034E000E314F5FCDE2493F70704E39207EC12558E
:1034F000C1B5780097060000938686D426860C080E
:103500004E85012AE1BF797156CA9C49BA8A98450D
:1035100022D426D24ECE52CC06D64AD05AC85EC647
:10352000AA892E84B284368A63D3E700BA879CC006
:103530000347340419C385079CC01C4093F7070256
:1035400081C79C4089079CC0032904001379690046
:10355000631A0900130B9401FD5B5C449840998F3A
:10356000634CF9041C408346340493F70702B336D6
:10357000D000A5EB13063404D2854E85829AFD5700
:103580006303F5041C4011469840998B54448144D0
:103590006397C700B384E64063D3040081441C44AE
:1035A00018486354F700998FBE94014969047D5B04
:1035B00063982405014509A885465A86D2854E851B
:1035C000829A631E75017D55B2502254925402595D
:1035D000F249624AD24A424BB24B456182800509A8
:1035E000ADBF3307D40013060003A301C70403478C
:1035F000540493871600A2978906A381E7049DBF10
:1036000085462286D2854E85829AE30E65FB0509A2
:1036100045B7797122D426D24AD04ECE06D652CCA6
:1036200056CA5AC8B689942D930790063289AA843F
:103630002E8413863504638DF60263E2D706930762
:1036400080056386F61863EDD700638E0620930726
:103650003004638EF60A930A24042301D404C9A01B
:10366000930730066385F60A93074006E395F6FE56
:103670001C40084393F6070893054500C5C61C4146
:103680000CC363D807001307D002B307F040A301AF
:10369000E404971600009386A68F294765A8930730
:1036A00000076382F61663E5D7029307E006638995
:1036B000F6189307F006E390F6FA0C401C4313F853
:1036C0000508138547006307080608C39C4385A8BF
:1036D00093075007E383F6FE930780076389F6128A
:1036E00093073007E399F6F61C43D0418145938652
:1036F000470014C383AA070056858D2601C53305EC
:10370000554148C05C401CC8A301040461A81C4387
:10371000930A2404938647009C4314C32301F404B2
:103720008547D5B793F607041C410CC3B9DAC20725
:10373000C18781BF93F5050408C3C9D99E23130728
:10374000F0066387E60E9716000093866684294785
:10375000A30104044C400CC463C5050008406D99E6
:1037600008C099E3B28A89CDB28AB3F5E702FD1A9F
:10377000B6958C212380BA00B3D5E70263F0E70C3D
:10378000A147631EF7001C40858B91CB58401C4815
:1037900063C7E70093070003A38FFAFEFD1A330601
:1037A000564110C84E87CA867000A2852685EFF064
:1037B0009FD57D5A631D450B7D55B25022549254BE
:1037C0000259F249624AD24A424B45618280A38241
:1037D000D504970600009386A67B0C40084313F897
:1037E00005081C411105630D080208C313F71500F5
:1037F00001C793E505020CC04147B9FB0C4093F5A6
:10380000F5FD0CC0B1B79C4193E707029CC193073B
:103810008007A302F404970600009386A67875BF7C
:1038200013F8050408C3E30308FCC207C1837DBF86
:10383000970600009386C675214719BFAE8735B736
:1038400094411C43CC4913F80608138547006306CE
:10385000080008C39C438CC339A008C393F6060430
:103860009C43F5DA8EA323280400B28A25BF1448AE
:103870005686CA8526858299E30045F51C40898BCA
:103880008DE7B2474844E35AF5F23E853DB7854699
:103890005686CA8526858299E30065F3050A5C444D
:1038A0003247998FE345FAFEE9BF014A930A940132
:1038B0007D5BF5B7411122C42A842E8523A801A47B
:1038C00006C6EFE0BFF7FD576317F500938701A524
:1038D0009C4391C31CC0B2402244410182804111EB
:1038E00022C42E848395E50006C67922634905002B
:1038F0007C48AA977CC8B2402244410182805E2461
:103900007D777D17F98F5EA4FDB7DE25011122CCEE
:1039100026CA4AC84EC606CE93F70710AA842E843C
:103920003289B68991C78395E50089460146092207
:103930005E247D777D17F98F5EA48315E4006244D1
:10394000F240CE864A86B24942492685D244056174
:1039500025A8411122C42E848395E50006C6C928F6
:10396000FD575A24631AF500FD77FD17F98F5EA401
:10397000B2402244410182808567D98F5EA468C825
:10398000C5BF8395E50005A8411122C42A842E8570
:10399000B285368623A801A406C6EFE05FE6FD5790
:1039A0006317F500938701A59C4391C31CC0B240E7
:1039B000224441018280411122C42A842E8523A8F9
:1039C00001A406C6C520FD576317F500938701A51E
:1039D0009C4391C31CC0B2402244410182804111EA
:1039E00022C42A842E85B28523A801A406C6C92034
:1039F000FD576317F500938701A59C4391C31CC035
:103A0000B240224441018280411122C42A842E8581
:103A100023A801A406C65D20FD576317F500938710
:103A200001A59C4391C31CC0B24022444101828045
:103A3000411122C42A842E85B285368623A801A48A
:103A400006C65920FD576317F500938701A59C43CF
:103A500091C31CC0B24022444101828093F5F50F0E
:103A60002A966314C500014582801C21E38EB7FEAF
:103A70000505C5BF82808280411122C42A842E851B
:103A8000B285368623A801A406C6A920FD57631770
:103A9000F500938701A59C4391C31CC0B24022440A
:103AA000410182809307800523A8F1A47D5582807F
:103AB0009307800523A8F1A47D5582809307800594
:103AC00023A8F1A4014582809307800523A8F1A4CF
:103AD0007D5582809307800523A8F1A47D558280BF
:103AE000540E00009C0E0000B20E0000680E000094
:103AF000680E0000680E0000DE0E0000680E000078
:103B0000680E0000DE0E0000D80E0000360F000028
:103B10007C0F0000C00F0000680E0000D60F0000F0
:103B2000680E0000680E000010100000680E000013
:103B3000680E0000680E0000680E0000680E0000AD
:103B4000680E0000680E0000680E0000680E00009D
:103B5000680E0000680E0000680E0000FC0E0000F9
:103B6000160F0000781000003E1100002411000024
:103B7000EE120000EE12000018120000EE1200001B
:103B800034120000EE120000EE1200009612000047
:103B9000D210000052120000EE120000A01200002D
:103BA000DE120000661200008012000070646F5F79
:103BB000696E646578206572726F72210D00000075
:103BC000526571756573743A0D0A43757272656E4C
:103BD000743A2564206D410D0A566F6C74616765F7
:103BE0003A2564206D560D0A000000004343256409
:103BF0002053524320436F6E6E6563742025640D1D
:103C00000A000000434325642053524320436F6E53
:103C10006E6563740D0A0000434325642053494ECA
:103C20004B20436F6E6E6563740D0A0044697363C5
:103C30006F6E6E6563740D0053656E6420536F750F
:103C400072636520436170205375636365737366A7
:103C5000756C6C790D0000004163636570740D0034
:103C600050532072656164790D000000534338376A
:103C700032362054696D65204F7574202050440DF4
:103C80000000000050444F3A25640D0A43757272DB
:103C9000656E743A2564206D410D0A566F6C74612F
:103CA00067653A2564206D560D0A000048616E6410
:103CB0006C652052657175657374202025640D0A4A
:103CC000000000002020526571756573743A0D0A7A
:103CD000202050444F5F4964783A25640D0A000063
:103CE000202043757272656E743A2564206D410D13
:103CF0000A000000537563636573730D00000000D4
:103D0000556E737570706F7274656420436F6D6D5E
:103D1000616E640D0000000049465F52585F5245D5
:103D20005345540D000000007064206461746120EC
:103D30006572726F72202564202025640D0A0000D0
:103D400053797374656D436C6B3A25640D0A0000FA
:103D50004368697049443A253038780D0A000000FC
:103D600056342E302E330D00441600005A16000033
:103D700074160000DC160000FE1600002E1700006E
:103D800053657474696E6773205662757320256479
:103D9000206D5620737563636573730D0A00000010
:103DA0004F75742056627573202564206D562073FC
:103DB0007563636573730D0A00000000256420209D
:103DC0000000000044495320444344432031206F05
:103DD0006B200D0056627573203D20256420206500
:103DE00072726F7220203C35560D0A005662757350
:103DF000203D20256420206572726F7220203E31A4
:103E000032560D0A000000007363383732362E53E5
:103E100065745F4F75745F43757272656E74203D93
:103E20002025640D0A00000056627573206F6666D7
:103E30000D000000736574203556207363383732E7
:103E4000360D0000534E4B2056427573206572723A
:103E50006F720D00BE1B0000361C00003A1C0000F3
:103E60003E1C0000421C0000541C0000621C0000AC
:103E70006D795F7370692E436F6E74726F6C5F44FF
:103E80006174615B305D203D2025640D0A000000F7
:103E90007365742044494F5F537461747573203D9A
:103EA0002025640D0A00000076616C76652073653C
:103EB000742025640D0A0000726563656976655F8C
:103EC000627566665F73697A65203D2025642065AA
:103ED00072726F720D0A000076616C7665206368FD
:103EE00065636B207374617274202025640D0A0071
:103EF0007365745F50445F5354415455535F53523C
:103F0000430D0000253032782020000073697A6567
:103F1000203D2025640D0A00000000000000000084
:103F20000000000000000000000000000000000091
:103F30000000000000000000000000000000000081
:103F40000000000000000000000000000000000071
:103F50000000000000000000000000000000000061
:103F60000000000000000000000000000000000051
:103F70000000000000000000232D302B2000000076
:103F8000686C4C0065666745464700003031323347
:103F90003435363738394142434445460000000045
:103FA00030313233343536373839616263646566AF
:043FB000000000000D
:103FB40018806300000000000000010000000703F7
:103FC4000000000000000003001200002C91013EDC
:103FD400DED0023EA7C0033E010203040506070823
:103FE4000102030405060708010203040506070885
:103FF400010203040506070800000000383F000022
:10400400583F0000183F00000000000000000000BE
:10401400000000000000000000000000000000009C
:10402400000000000000000000000000000000008C
:10403400000000000000000000000000000000007C
:10404400000000000000000000000000000000006C
:104054000000000000000000649001362C91013E35
:10406400040000000680160000000000A700FF0006
:10407400006CDC02444444444444444444444444C2
:10408400FC0200204800002048000020000000003E
:00000001FF
